:020000040000FA
:0600000058EF04F01200AD
:020006001200E6
:0600080027EF00F01200DA
:02000E000000F0
:0600180016EF00F01200DB
:02001E000100DF
:0C0020000E0000008D0000000200000037
:04002C00D8CFE4FF46
:10003000E0CFE4FFE46EDACFE4FFE652E552E5CF2D
:10004000DAFFE550E5CFE0FFE5CFD8FF1000DACFCB
:10005000E4FFE652F2A225D080A622D080A205D0ED
:100060007EC080F07FC081F003D00001806B816B87
:100070000001800E811502E0806B816B813508E202
:100080008051FF080F0E815503E280690F0E816FCA
:1000900080C082FF819C818C81C082FF8198818891
:1000A000F292E552E5CFDAFF11001200700ED36E26
:1000B000766A0F0E926E806A818C8188786A200E33
:1000C000936E946A826A7E6A7F6A9D6AA06AD08E05
:1000D000F28EF29CF288F19EF19CF19AF198D56A29
:1000E00000017E6B7F6B7EC082FF819C818C7FC014
:1000F00082FF81988188808A938A939E1200D6DF3E
:10010000DDEC02F0800EE66E080EE66EE8EC02F022
:10011000E552E55200018251080B01E0010E106E1C
:100120008050080B01E0010E105C12E08050080BBB
:1001300002E0828701D0829780B60AD07E6B7F6B07
:100140007EC082FF819C818C7FC082FF81988188E4
:100150009EAAE0D701D8DED7AECF68F0AE500D0A28
:1001600001E184D0210A75E05F0A61E0120A1DE016
:10017000100A0FE000018D51EA6A600FE96E000E6F
:10018000EA2268C0EFFF8D2B8D51070801E397D05D
:1001900082D07C0EE66E080EE66EE8EC02F0E552C8
:1001A000E5526E0EE66E080E23D00001800E7F151C
:1001B00002E07E6B7F6B7F3508E27E51FF080F0EF9
:1001C0007F5503E27E690F0E7F6F7EC082FF819CA8
:1001D000818C7FC082FF819881887C0EE66E080E3C
:1001E000E66EE8EC02F0E552E552590EE66E080EB6
:1001F000E66EE8EC02F0E552E552690EE66E000E9E
:10020000E66E7EC0E6FF7FC0E6FF43EC02F0E552FB
:10021000E552E552E552690EE66E000EE66E05EC1B
:1002200003F0E552E5526B0EE66E080E2FD0826A9F
:10023000819C818C826A819881887C0EE66E080E92
:10024000E66EE8EC02F0E552E5524D0EE66E080E61
:100250001DD03BD80001606B616B626B636B646B9C
:10026000656B666B676B00018D6B29D02ED8000122
:10027000606B616B626B636B646B656B666B676B0A
:1002800000018D6B8E6B410EE66E080EE66EE8EC9B
:1002900002F0E55218D0340EE66E080EE66EE8EC79
:1002A00002F0E552E5520001606B616B626B636BBB
:1002B000646B656B666B676B00018D6B120068C0C9
:1002C000E6FF21EC03F0E552120000018E5114E12B
:1002D00000016051700A05E1700E7D6F00018E2BE8
:1002E0001200200EE66E080EE66EE8EC02F0E55213
:1002F000E55200018E6B12008E054FE100017D5129
:10030000700A01E01200600EE66E000EE66ECEECA2
:1003100001F0E552E552F3CF7EF0F4CF7FF000011B
:10032000800EF41402E07E6B7F6B7F3508E27E5115
:10033000FF080F0E7F5503E27E690F0E7F6F7C0E64
:10034000E66E080EE66EE8EC02F0E552E5526E0E3F
:10035000E66E080EE66EE8EC02F0E552E552690E34
:10036000E66E000EE66E7EC0E6FF7FC0E6FF43EC61
:1003700002F0E552E552E552E552690EE66E000ED6
:10038000E66E05EC03F0E552E5526B0EE66E080EE4
:0C039000E66EE8EC02F0E552E5521200C7
:04039C00FF0EE3CF9E
:1003A000EAFFE552FF0EE3CFE9FFE552E66AE66AAF
:1003B000D9CFE6FFDACFE6FFFC0EE124D96EFF0EBF
:1003C000E220DA6EE66AE66AE66A200EEF5C06E094
:1003D000090EEF5C03E0EF6603D03FD0EE50F5D797
:1003E0002D0EEF5C03E1FF0EE32A03D02B0EEF5C32
:1003F00001E1EE502F0EEF6424D03A0EEF6021D0D1
:10040000D890F90EE336FA0EE336FD0EDECFE3FFA9
:10041000FE0EDDCFE3FFD890F90EE336FA0EE33699
:10042000D890F90EE336FA0EE336FD0EE350DE26E1
:10043000FE0EE350DD22300EEE5CDE26000EDD22E5
:10044000D9D7FF0EE3CFE8FFE85207E0F90EE31E2D
:10045000E32AFA0ED8B4E306E31EE552E552E5526C
:10046000FF0EE3CFDAFFE552FF0EE3CFD9FFE552EF
:10047000E1CFE9FFE2CFEAFFED52ED52EECFF3FF1D
:10048000EFCFF4FF1200D9CFE6FFDACFE6FFFA0E86
:10049000E3CFD9FFFB0EE3CFDAFFFD0EE35209E70E
:1004A0002D0EDE6EFC0EE31EE32AFD0ED8B4E3062D
:1004B000E31EE652E652E652FD0EE124E76EFF0E21
:1004C000E220E46EE652F70EE3CFE6FFF70EE3CF4D
:1004D000E6FFB3EC02F0F90EE124E96EFF0EE22034
:1004E000EA6EA3EC02F00AE1A0EC02F009E1A3EC51
:1004F00002F008E1A0EC02F007E108D0AEEC02F057
:10050000A9EC02F0AEEC02F0A9EC02F0AEEC02F0C5
:10051000DE6AF90EE126FF0EE222FF0EE3CFDAFFDC
:10052000E552FF0EE3CFD9FFE552FC0EE124E96E60
:10053000FF0EE220EA6EEECFF3FFEFCFF4FF1200E2
:10054000EF380F0B1200EF500F0B02E1EE52D88480
:100550001200EF380F0B300FDE6E1200EE500F0B53
:10056000300FDE6E1200FC0EE3CFE9FFFD0EE3CF8D
:10057000EAFF100EE66EEE6AEE6AEF6AD890FD0EA4
:10058000E336FE0EE336ED36ED36EF36FF0EE306CC
:1005900009E0D4EC02F0EE52D4EC02F0EE52D4ECCE
:1005A00002F0EDD7E56E1200030EEF24E8B6EF6E11
:0A05B000300EEF24E8BEEF6E000CE1
:0605BA00938A939E240EBB
:1005C000AC6E900EAB6E400EB86E330EAF6E120076
:1005D000D9CFE6FFE1CFD9FFE652FD0EDBCFF6FF24
:1005E000DB2AFE0EDBCFF7FF01E3DB2A0800F55024
:1005F000DF6EDF5005E0DFCFE6FF23D8E552EDD711
:10060000E552E552E7CFD9FF1200D9CFE6FFE1CF9F
:10061000D9FFE652FD0EDBCFE9FFDB2AFE0EDBCF72
:10062000EAFF01E3DB2AEFCFDFFFDF5005E0DFCF9A
:10063000E6FF07D8E552EED7E552E552E7CFD9FFFE
:100640001200D9CFE6FFE1CFD9FFACA2FED7FE0E54
:10065000DB50AD6EACA2FED7E552E7CFD9FF12005A
:10066000ABA202D0AB98AB88AE501200D9CFE6FF58
:10067000E1CFD9FFE652FE0EDB50DF6EFE0EDB3817
:100680000F0B0F0BE76EFE0EE7CFDBFFDB50F76AB9
:10069000E80FF66E080EF7220800F550E66ED1DF7F
:1006A000E5520F0EDF14E76EFE0EE7CFDBFFDB50E7
:1006B000F76AE80FF66E080EF7220800F550E66EAE
:1006C000C0DFE552E552E552E7CFD9FF1200D9CF9E
:1006D000E6FFE1CFD9FF640EF36EFE0EDBCFF4FF31
:1006E000F350F45C13E3640E106E0C6EFE0EDBCF61
:1006F00007F066EC04F00750F76AE80FF66E080E94
:10070000F7220800F550E66E9CDFE5520A0EF36E04
:10071000FE0EDBCFF4FFF350F45C1CE3640E116EAD
:100720000C6EFE0EDBCF07F066EC04F003C010F099
:100730000A0E126E0C6E03C007F066EC04F0075050
:10074000F76AE80FF66E080EF7220800F550E66E1D
:1007500078DFE5520A0E106E0C6EFE0EDBCF07F04E
:1007600066EC04F00350F76AE80FF66E080EF72205
:100770000800F550E66E65DFE552E552E7CFD9FF98
:02078000120065
:0E0782001E0EF66E000EF76E000EF86E0001F1
:100790000900F550886F0900F550896F03E18867FB
:1007A00001D03DD00900F550836F0900F550846FEA
:1007B0000900F550856F09000900F550E96E090040
:1007C000F550EA6E090009000900F550866F09002E
:1007D000F550876F09000900F6CF8AF0F7CF8BF04C
:1007E000F8CF8CF083C0F6FF84C0F7FF85C0F8FF18
:1007F0000001865302E1875307E00900F550EE6ED1
:100800008607F8E28707F9D78AC0F6FF8BC0F7FFA3
:100810008CC0F8FF00018807000E895BBFD712006B
:100820000D0A20486962E17320706172616E637322
:100830002E0D0A000D0A2074756C20736F6B0D0A63
:10084000000D0A2072657475726E0D0A004C61739A
:100850006572204F46460D0A004C61736572204F49
:100860004E2C20706F7765723A20000D0A004C61A3
:1008700073657220706F7765723A20000D0A0A0066
:100880000D0A206C6173657220746573740D0A0023
:10089000000EF36E00EE00F0020E01D81200EA60C6
:1008A00002D0EE6AFCD7F350E9601200EE6AFCD782
:1008B00011EE00F021EE00F0F86A0F9CC1EC03F09D
:0C08C00003EC00F07FEC00F0FBD712000E
:0408CC00036A080EA5
:1008D000E76ED890073603360C50035C02E3036ED4
:0808E000072AE72EF7D71200EA
:0808E80030313233343536376C
:0808F0003839414243444546FA
:020000040030CA
:0100010028D6
:010002001FDE
:010003001EDE
:0100050008F2
:010006008178
:0100080003F4
:01000900C036
:01000A0003F2
:01000B00E014
:01000C0003F0
:01000D0040B2
:00000001FF
